{
  "_format": "hh-sol-artifact-1",
  "contractName": "Marketplace",
  "sourceName": "contracts/Marketplace.sol",
  "abi": [
    {
      "inputs": [
        {
          "internalType": "address",
          "name": "_invoiceNFT",
          "type": "address"
        }
      ],
      "stateMutability": "nonpayable",
      "type": "constructor"
    },
    {
      "inputs": [],
      "name": "ReentrancyGuardReentrantCall",
      "type": "error"
    },
    {
      "anonymous": false,
      "inputs": [
        {
          "indexed": true,
          "internalType": "uint256",
          "name": "tokenId",
          "type": "uint256"
        },
        {
          "indexed": true,
          "internalType": "address",
          "name": "investor",
          "type": "address"
        },
        {
          "indexed": false,
          "internalType": "uint256",
          "name": "amount",
          "type": "uint256"
        }
      ],
      "name": "Claimed",
      "type": "event"
    },
    {
      "anonymous": false,
      "inputs": [
        {
          "indexed": true,
          "internalType": "uint256",
          "name": "tokenId",
          "type": "uint256"
        },
        {
          "indexed": true,
          "internalType": "address",
          "name": "investor",
          "type": "address"
        },
        {
          "indexed": false,
          "internalType": "uint256",
          "name": "amount",
          "type": "uint256"
        }
      ],
      "name": "Funded",
      "type": "event"
    },
    {
      "anonymous": false,
      "inputs": [
        {
          "indexed": true,
          "internalType": "uint256",
          "name": "tokenId",
          "type": "uint256"
        },
        {
          "indexed": true,
          "internalType": "address",
          "name": "seller",
          "type": "address"
        },
        {
          "indexed": false,
          "internalType": "uint256",
          "name": "goalAmount",
          "type": "uint256"
        },
        {
          "indexed": false,
          "internalType": "uint256",
          "name": "returnAmount",
          "type": "uint256"
        }
      ],
      "name": "Listed",
      "type": "event"
    },
    {
      "anonymous": false,
      "inputs": [
        {
          "indexed": true,
          "internalType": "uint256",
          "name": "tokenId",
          "type": "uint256"
        },
        {
          "indexed": false,
          "internalType": "uint256",
          "name": "amount",
          "type": "uint256"
        }
      ],
      "name": "Repaid",
      "type": "event"
    },
    {
      "inputs": [
        {
          "internalType": "uint256",
          "name": "tokenId",
          "type": "uint256"
        }
      ],
      "name": "claimReturns",
      "outputs": [],
      "stateMutability": "nonpayable",
      "type": "function"
    },
    {
      "inputs": [
        {
          "internalType": "uint256",
          "name": "tokenId",
          "type": "uint256"
        }
      ],
      "name": "fundInvoice",
      "outputs": [],
      "stateMutability": "payable",
      "type": "function"
    },
    {
      "inputs": [
        {
          "internalType": "uint256",
          "name": "tokenId",
          "type": "uint256"
        }
      ],
      "name": "getListing",
      "outputs": [
        {
          "components": [
            {
              "internalType": "address",
              "name": "seller",
              "type": "address"
            },
            {
              "internalType": "uint256",
              "name": "goalAmount",
              "type": "uint256"
            },
            {
              "internalType": "uint256",
              "name": "currentAmount",
              "type": "uint256"
            },
            {
              "internalType": "uint256",
              "name": "returnAmount",
              "type": "uint256"
            },
            {
              "internalType": "enum Marketplace.ListingState",
              "name": "state",
              "type": "uint8"
            }
          ],
          "internalType": "struct Marketplace.Listing",
          "name": "",
          "type": "tuple"
        }
      ],
      "stateMutability": "view",
      "type": "function"
    },
    {
      "inputs": [
        {
          "internalType": "uint256",
          "name": "",
          "type": "uint256"
        },
        {
          "internalType": "address",
          "name": "",
          "type": "address"
        }
      ],
      "name": "investments",
      "outputs": [
        {
          "internalType": "uint256",
          "name": "",
          "type": "uint256"
        }
      ],
      "stateMutability": "view",
      "type": "function"
    },
    {
      "inputs": [],
      "name": "invoiceNFT",
      "outputs": [
        {
          "internalType": "contract InvoiceNFT",
          "name": "",
          "type": "address"
        }
      ],
      "stateMutability": "view",
      "type": "function"
    },
    {
      "inputs": [
        {
          "internalType": "uint256",
          "name": "tokenId",
          "type": "uint256"
        },
        {
          "internalType": "uint256",
          "name": "goalAmount",
          "type": "uint256"
        },
        {
          "internalType": "uint256",
          "name": "returnAmount",
          "type": "uint256"
        }
      ],
      "name": "listInvoice",
      "outputs": [],
      "stateMutability": "nonpayable",
      "type": "function"
    },
    {
      "inputs": [
        {
          "internalType": "uint256",
          "name": "",
          "type": "uint256"
        }
      ],
      "name": "listings",
      "outputs": [
        {
          "internalType": "address",
          "name": "seller",
          "type": "address"
        },
        {
          "internalType": "uint256",
          "name": "goalAmount",
          "type": "uint256"
        },
        {
          "internalType": "uint256",
          "name": "currentAmount",
          "type": "uint256"
        },
        {
          "internalType": "uint256",
          "name": "returnAmount",
          "type": "uint256"
        },
        {
          "internalType": "enum Marketplace.ListingState",
          "name": "state",
          "type": "uint8"
        }
      ],
      "stateMutability": "view",
      "type": "function"
    },
    {
      "inputs": [
        {
          "internalType": "uint256",
          "name": "tokenId",
          "type": "uint256"
        }
      ],
      "name": "repayInvoice",
      "outputs": [],
      "stateMutability": "payable",
      "type": "function"
    }
  ],
  "bytecode": "0x60806040523480156200001157600080fd5b5060405162001c0538038062001c058339818101604052810190620000379190620000f1565b600160008190555080600160006101000a81548173ffffffffffffffffffffffffffffffffffffffff021916908373ffffffffffffffffffffffffffffffffffffffff1602179055505062000123565b600080fd5b600073ffffffffffffffffffffffffffffffffffffffff82169050919050565b6000620000b9826200008c565b9050919050565b620000cb81620000ac565b8114620000d757600080fd5b50565b600081519050620000eb81620000c0565b92915050565b6000602082840312156200010a576200010962000087565b5b60006200011a84828501620000da565b91505092915050565b611ad280620001336000396000f3fe60806040526004361061007b5760003560e01c806364d5fa471161004e57806364d5fa471461012d57806372ace35e14610149578063b11b32d214610172578063de74e57b146101af5761007b565b8063107a274a1461008057806321b6a353146100bd5780634bb6f06d146100e6578063559034df14610111575b600080fd5b34801561008c57600080fd5b506100a760048036038101906100a291906110d3565b6101f0565b6040516100b4919061122f565b60405180910390f35b3480156100c957600080fd5b506100e460048036038101906100df91906110d3565b6102cc565b005b3480156100f257600080fd5b506100fb610517565b60405161010891906112a9565b60405180910390f35b61012b600480360381019061012691906110d3565b61053d565b005b610147600480360381019061014291906110d3565b6107c7565b005b34801561015557600080fd5b50610170600480360381019061016b91906112c4565b610a80565b005b34801561017e57600080fd5b5061019960048036038101906101949190611343565b610f69565b6040516101a69190611392565b60405180910390f35b3480156101bb57600080fd5b506101d660048036038101906101d191906110d3565b610f8e565b6040516101e79594939291906113cb565b60405180910390f35b6101f8611041565b600260008381526020019081526020016000206040518060a00160405290816000820160009054906101000a900473ffffffffffffffffffffffffffffffffffffffff1673ffffffffffffffffffffffffffffffffffffffff1673ffffffffffffffffffffffffffffffffffffffff1681526020016001820154815260200160028201548152602001600382015481526020016004820160009054906101000a900460ff1660028111156102af576102ae611150565b5b60028111156102c1576102c0611150565b5b815250509050919050565b6102d4610ff1565b60006002600083815260200190815260200160002090506002808111156102fe576102fd611150565b5b8160040160009054906101000a900460ff16600281111561032257610321611150565b5b14610362576040517f08c379a00000000000000000000000000000000000000000000000000000000081526004016103599061147b565b60405180910390fd5b60006003600084815260200190815260200160002060003373ffffffffffffffffffffffffffffffffffffffff1673ffffffffffffffffffffffffffffffffffffffff168152602001908152602001600020549050600081116103fa576040517f08c379a00000000000000000000000000000000000000000000000000000000081526004016103f1906114e7565b60405180910390fd5b60006003600085815260200190815260200160002060003373ffffffffffffffffffffffffffffffffffffffff1673ffffffffffffffffffffffffffffffffffffffff16815260200190815260200160002081905550600082600101548360030154836104679190611536565b61047191906115a7565b90503373ffffffffffffffffffffffffffffffffffffffff166108fc829081150290604051600060405180830381858888f193505050501580156104b9573d6000803e3d6000fd5b503373ffffffffffffffffffffffffffffffffffffffff16847f4ec90e965519d92681267467f775ada5bd214aa92c0dc93d90a5e880ce9ed026836040516105019190611392565b60405180910390a3505050610514611037565b50565b600160009054906101000a900473ffffffffffffffffffffffffffffffffffffffff1681565b610545610ff1565b6000600260008381526020019081526020016000209050600160028111156105705761056f611150565b5b8160040160009054906101000a900460ff16600281111561059457610593611150565b5b146105d4576040517f08c379a00000000000000000000000000000000000000000000000000000000081526004016105cb90611624565b60405180910390fd5b8060030154341461061a576040517f08c379a000000000000000000000000000000000000000000000000000000000815260040161061190611690565b60405180910390fd5b60028160040160006101000a81548160ff0219169083600281111561064257610641611150565b5b0217905550600160009054906101000a900473ffffffffffffffffffffffffffffffffffffffff1673ffffffffffffffffffffffffffffffffffffffff166323b872dd308360000160009054906101000a900473ffffffffffffffffffffffffffffffffffffffff16856040518463ffffffff1660e01b81526004016106ca939291906116b0565b600060405180830381600087803b1580156106e457600080fd5b505af11580156106f8573d6000803e3d6000fd5b50505050600160009054906101000a900473ffffffffffffffffffffffffffffffffffffffff1673ffffffffffffffffffffffffffffffffffffffff1663ad207e1e836040518263ffffffff1660e01b81526004016107579190611392565b600060405180830381600087803b15801561077157600080fd5b505af1925050508015610782575060015b50817f81472a96709c8315c82af40d41ef624a642ad53864b097e53af675593bb4e035346040516107b39190611392565b60405180910390a2506107c4611037565b50565b6107cf610ff1565b6000600260008381526020019081526020016000209050600060028111156107fa576107f9611150565b5b8160040160009054906101000a900460ff16600281111561081e5761081d611150565b5b1461085e576040517f08c379a000000000000000000000000000000000000000000000000000000000815260040161085590611733565b60405180910390fd5b80600101543482600201546108739190611753565b11156108b4576040517f08c379a00000000000000000000000000000000000000000000000000000000081526004016108ab906117d3565b60405180910390fd5b600034116108f7576040517f08c379a00000000000000000000000000000000000000000000000000000000081526004016108ee9061183f565b60405180910390fd5b346003600084815260200190815260200160002060003373ffffffffffffffffffffffffffffffffffffffff1673ffffffffffffffffffffffffffffffffffffffff16815260200190815260200160002060008282546109579190611753565b92505081905550348160020160008282546109729190611753565b925050819055503373ffffffffffffffffffffffffffffffffffffffff16827f38c48552690c96ec2872092ac1db6c19fb59f5a8c5b49bbf41ed4886d0ca6926346040516109c09190611392565b60405180910390a38060010154816002015403610a745760018160040160006101000a81548160ff021916908360028111156109ff576109fe611150565b5b02179055508060000160009054906101000a900473ffffffffffffffffffffffffffffffffffffffff1673ffffffffffffffffffffffffffffffffffffffff166108fc82600201549081150290604051600060405180830381858888f19350505050158015610a72573d6000803e3d6000fd5b505b50610a7d611037565b50565b3373ffffffffffffffffffffffffffffffffffffffff16600160009054906101000a900473ffffffffffffffffffffffffffffffffffffffff1673ffffffffffffffffffffffffffffffffffffffff16636352211e856040518263ffffffff1660e01b8152600401610af29190611392565b602060405180830381865afa158015610b0f573d6000803e3d6000fd5b505050506040513d601f19601f82011682018060405250810190610b339190611874565b73ffffffffffffffffffffffffffffffffffffffff1614610b89576040517f08c379a0000000000000000000000000000000000000000000000000000000008152600401610b80906118ed565b60405180910390fd5b3073ffffffffffffffffffffffffffffffffffffffff16600160009054906101000a900473ffffffffffffffffffffffffffffffffffffffff1673ffffffffffffffffffffffffffffffffffffffff1663081812fc856040518263ffffffff1660e01b8152600401610bfb9190611392565b602060405180830381865afa158015610c18573d6000803e3d6000fd5b505050506040513d601f19601f82011682018060405250810190610c3c9190611874565b73ffffffffffffffffffffffffffffffffffffffff161480610cf85750600160009054906101000a900473ffffffffffffffffffffffffffffffffffffffff1673ffffffffffffffffffffffffffffffffffffffff1663e985e9c533306040518363ffffffff1660e01b8152600401610cb692919061190d565b602060405180830381865afa158015610cd3573d6000803e3d6000fd5b505050506040513d601f19601f82011682018060405250810190610cf7919061196e565b5b610d37576040517f08c379a0000000000000000000000000000000000000000000000000000000008152600401610d2e906119e7565b60405180910390fd5b600082118015610d475750818110155b610d86576040517f08c379a0000000000000000000000000000000000000000000000000000000008152600401610d7d90611a53565b60405180910390fd5b600160009054906101000a900473ffffffffffffffffffffffffffffffffffffffff1673ffffffffffffffffffffffffffffffffffffffff166323b872dd3330866040518463ffffffff1660e01b8152600401610de5939291906116b0565b600060405180830381600087803b158015610dff57600080fd5b505af1158015610e13573d6000803e3d6000fd5b505050506040518060a001604052803373ffffffffffffffffffffffffffffffffffffffff1681526020018381526020016000815260200182815260200160006002811115610e6557610e64611150565b5b8152506002600085815260200190815260200160002060008201518160000160006101000a81548173ffffffffffffffffffffffffffffffffffffffff021916908373ffffffffffffffffffffffffffffffffffffffff16021790555060208201518160010155604082015181600201556060820151816003015560808201518160040160006101000a81548160ff02191690836002811115610f0b57610f0a611150565b5b02179055509050503373ffffffffffffffffffffffffffffffffffffffff16837f98868c46d49b200d82c273c9f28d73265826ca6567690262736450563dfff64c8484604051610f5c929190611a73565b60405180910390a3505050565b6003602052816000526040600020602052806000526040600020600091509150505481565b60026020528060005260406000206000915090508060000160009054906101000a900473ffffffffffffffffffffffffffffffffffffffff16908060010154908060020154908060030154908060040160009054906101000a900460ff16905085565b60026000540361102d576040517f3ee5aeb500000000000000000000000000000000000000000000000000000000815260040160405180910390fd5b6002600081905550565b6001600081905550565b6040518060a00160405280600073ffffffffffffffffffffffffffffffffffffffff1681526020016000815260200160008152602001600081526020016000600281111561109257611091611150565b5b81525090565b600080fd5b6000819050919050565b6110b08161109d565b81146110bb57600080fd5b50565b6000813590506110cd816110a7565b92915050565b6000602082840312156110e9576110e8611098565b5b60006110f7848285016110be565b91505092915050565b600073ffffffffffffffffffffffffffffffffffffffff82169050919050565b600061112b82611100565b9050919050565b61113b81611120565b82525050565b61114a8161109d565b82525050565b7f4e487b7100000000000000000000000000000000000000000000000000000000600052602160045260246000fd5b600381106111905761118f611150565b5b50565b60008190506111a18261117f565b919050565b60006111b182611193565b9050919050565b6111c1816111a6565b82525050565b60a0820160008201516111dd6000850182611132565b5060208201516111f06020850182611141565b5060408201516112036040850182611141565b5060608201516112166060850182611141565b50608082015161122960808501826111b8565b50505050565b600060a08201905061124460008301846111c7565b92915050565b6000819050919050565b600061126f61126a61126584611100565b61124a565b611100565b9050919050565b600061128182611254565b9050919050565b600061129382611276565b9050919050565b6112a381611288565b82525050565b60006020820190506112be600083018461129a565b92915050565b6000806000606084860312156112dd576112dc611098565b5b60006112eb868287016110be565b93505060206112fc868287016110be565b925050604061130d868287016110be565b9150509250925092565b61132081611120565b811461132b57600080fd5b50565b60008135905061133d81611317565b92915050565b6000806040838503121561135a57611359611098565b5b6000611368858286016110be565b92505060206113798582860161132e565b9150509250929050565b61138c8161109d565b82525050565b60006020820190506113a76000830184611383565b92915050565b6113b681611120565b82525050565b6113c5816111a6565b82525050565b600060a0820190506113e060008301886113ad565b6113ed6020830187611383565b6113fa6040830186611383565b6114076060830185611383565b61141460808301846113bc565b9695505050505050565b600082825260208201905092915050565b7f4e6f742072657061696400000000000000000000000000000000000000000000600082015250565b6000611465600a8361141e565b91506114708261142f565b602082019050919050565b6000602082019050818103600083015261149481611458565b9050919050565b7f4e6f20696e766573746d656e7420666f756e6400000000000000000000000000600082015250565b60006114d160138361141e565b91506114dc8261149b565b602082019050919050565b60006020820190508181036000830152611500816114c4565b9050919050565b7f4e487b7100000000000000000000000000000000000000000000000000000000600052601160045260246000fd5b60006115418261109d565b915061154c8361109d565b925082820261155a8161109d565b9150828204841483151761157157611570611507565b5b5092915050565b7f4e487b7100000000000000000000000000000000000000000000000000000000600052601260045260246000fd5b60006115b28261109d565b91506115bd8361109d565b9250826115cd576115cc611578565b5b828204905092915050565b7f4e6f742066756e64656400000000000000000000000000000000000000000000600082015250565b600061160e600a8361141e565b9150611619826115d8565b602082019050919050565b6000602082019050818103600083015261163d81611601565b9050919050565b7f496e636f72726563742072657061796d656e7420616d6f756e74000000000000600082015250565b600061167a601a8361141e565b915061168582611644565b602082019050919050565b600060208201905081810360008301526116a98161166d565b9050919050565b60006060820190506116c560008301866113ad565b6116d260208301856113ad565b6116df6040830184611383565b949350505050565b7f4e6f742061637469766500000000000000000000000000000000000000000000600082015250565b600061171d600a8361141e565b9150611728826116e7565b602082019050919050565b6000602082019050818103600083015261174c81611710565b9050919050565b600061175e8261109d565b91506117698361109d565b925082820190508082111561178157611780611507565b5b92915050565b7f4f76657266756e64656400000000000000000000000000000000000000000000600082015250565b60006117bd600a8361141e565b91506117c882611787565b602082019050919050565b600060208201905081810360008301526117ec816117b0565b9050919050565b7f416d6f756e74206d757374206265203e20300000000000000000000000000000600082015250565b600061182960128361141e565b9150611834826117f3565b602082019050919050565b600060208201905081810360008301526118588161181c565b9050919050565b60008151905061186e81611317565b92915050565b60006020828403121561188a57611889611098565b5b60006118988482850161185f565b91505092915050565b7f4e6f74206f776e65720000000000000000000000000000000000000000000000600082015250565b60006118d760098361141e565b91506118e2826118a1565b602082019050919050565b60006020820190508181036000830152611906816118ca565b9050919050565b600060408201905061192260008301856113ad565b61192f60208301846113ad565b9392505050565b60008115159050919050565b61194b81611936565b811461195657600080fd5b50565b60008151905061196881611942565b92915050565b60006020828403121561198457611983611098565b5b600061199284828501611959565b91505092915050565b7f4e6f7420617070726f7665640000000000000000000000000000000000000000600082015250565b60006119d1600c8361141e565b91506119dc8261199b565b602082019050919050565b60006020820190508181036000830152611a00816119c4565b9050919050565b7f496e76616c696420616d6f756e74730000000000000000000000000000000000600082015250565b6000611a3d600f8361141e565b9150611a4882611a07565b602082019050919050565b60006020820190508181036000830152611a6c81611a30565b9050919050565b6000604082019050611a886000830185611383565b611a956020830184611383565b939250505056fea26469706673582212209ded6d142ff68863a440d69b342863c104a11e1e7270131e7d872bd0e4cb4c7464736f6c63430008180033",
  "linkReferences": {},
  "deployedLinkReferences": {}
}